:020000040800F2
:10000000000002204D1100089F110008AD110008EA
:10001000B3110008B9110008BF110008000000006A
:10002000000000000000000000000000C5110008F2
:10003000D311000800000000E1110008EF110008D2
:100040009D1100089D1100089D1100089D110008D8
:100050009D1100089D1100089D1100089D110008C8
:100060009D1100089D1100089D1100089D110008B8
:100070009D1100089D1100089D110008090D000840
:100080009D1100089D1100089D110008000000004E
:100090000000000000000000000000009D110008AA
:1000A0009D1100089D1100089D1100089D11000878
:1000B0009D1100089D1100089D1100089D11000868
:1000C0009D1100089D1100089D1100089D11000858
:1000D0009D1100089D1100089D11000800000000FE
:1000E0009D1100089D1100089D11000800000000EE
:1000F0000000000000000000000000009D1100084A
:10010000000000009D1100089D1100089D110008CD
:1001100000000000000000000000000000000000DF
:100120009D1100089D1100089D1100089D110008F7
:100130009D11000800000000000000000000000009
:100140000000000000000000000000009D110008F9
:100150009D1100089D1100089D1100089D110008C7
:100160009D1100089D110008000000000000000023
:10017000000000000000000000000000000000007F
:10018000000000009D1100080000000000000000B9
:080190009D1100089D110008FB
:1001980010B5054C237833B9044B13B10448AFF3B9
:1001A80000800123237010BD98110020000000007A
:1001B800A413000808B5034B1BB103490348AFF368
:1001C800008008BD000000009C110020A413000856
:1001D80080B485B000AF78600023FB730023BB7345
:1001E8000F237B737B68DB78002B39D0274BDB68C8
:1001F800DB431B0ADBB203F00703FB73FB7BC3F192
:100208000403BB737A7BFB7B42FA03F37B737B6843
:100218005B781A46BB7B02FA03F3FB737B689A7818
:100228007B7B1340DAB2FB7B1343FB73FB7B1B0125
:10023800FB73174A7B681B781344FA7B83F8002307
:10024800134A7B681B785B09DBB218467B681B780E
:1002580003F01F03012101FA03F342F820300FE0F5
:100268000B497B681B785B09DBB218467B681B78F7
:1002780003F01F0301229A4000F1200341F82320D4
:1002880000BF1437BD465DF8047B704700ED00E001
:1002980000E100E080B483B000AF78607B681B6841
:1002A80023F001027B681A607B6800221A607B6871
:1002B80000225A607B6800229A607B680022DA601C
:1002C8007B6800221A617B6821225A617B68464A52
:1002D800934203D1454B3D229A607EE07B68444AB5
:1002E800934204D1414B4FF474629A6075E07B6885
:1002F800404A934204D13D4B4FF474129A606CE02B
:100308007B683D4A934204D1384B4FF074629A603F
:1003180063E07B68394A934203D1344B384ADA6048
:100328005BE07B68374A934203D1304B364ADA6048
:1003380053E07B68354A934203D12C4B344ADA6048
:100348004BE07B68334A934204D1284B4FF03D522F
:10035800DA6042E07B68304A934203D12F4B3D225A
:100368009A603AE07B682E4A934204D12B4B4FF4B3
:1003780074629A6031E07B682A4A934204D1274B21
:100388004FF474129A6028E07B68274A934204D19C
:10039800224B4FF074629A601FE07B68234A9342B5
:1003A80003D11E4B164ADA6017E07B68204A934255
:1003B80003D11A4B144ADA600FE07B681D4A934256
:1003C80003D1164B124ADA6007E07B681A4A934257
:1003D80003D1124B4FF03D52DA6000BF0C37BD46D7
:1003E8005DF8047B704700BF106002400060024067
:1003F800286002404060024058600240706002403D
:100408003D00002088600240400F0020A0600240AC
:1004180000003D20B86002401064024000640240C1
:1004280028640240406402405864024070640240FC
:1004380088640240A0640240B864024080B485B079
:1004480000AF786039600023FB607B681B68FB6045
:10045800FA68254B1340FB603B681A683B68DB6809
:100468001A433B685B691A433B689B691A433B68BC
:10047800DB691A433B681B6A1A433B685B6A1A4389
:100488003B689B6A1A433B685B6B1A433B689B6BF0
:100498001343FA681343FB607B68FA681A607B6849
:1004A8005B69FB60FB6823F00703FB603B68DA6A63
:1004B8003B681B6B1343FA681343FB607B68FA685D
:1004C8005A613B681A697B685A603B685A687B685E
:1004D8009A603B689A687B68DA6000BF1437BD464B
:1004E8005DF8047B704700BF3F801CF080B483B088
:1004F80000AF78600B46FB70FB78002B06D07B685A
:100508001B6843F001027B681A6005E07B681B6882
:1005180023F001027B681A6000BF0C37BD465DF806
:10052800047B704780B485B000AFF860B9607A602A
:100538007B68002B06D0FB681B6843F40022FB682D
:100548001A6005E0FB681B6823F40022FB681A6048
:10055800FB68BA681A6100BF1437BD465DF8047BB2
:10056800704780B483B000AF78600B46FB70FB78AF
:10057800002B06D07B681B6843F480227B681A60D6
:1005880005E07B681B6823F480227B681A6000BF43
:100598000C37BD465DF8047B704780B485B000AF6A
:1005A80078600023FB737B681B6803F00103002B52
:1005B80002D00123FB7301E00023FB73FB7B184689
:1005C8001437BD465DF8047B7047000080B487B0DF
:1005D80000AF786039600023FB750023FB607B68FF
:1005E800154A934202D8154B3B6101E0144B3B611D
:1005F8003B6803F00053002B03D03B695B68FB604A
:1006080002E03B691B68FB60FB6823F0F02323F0E2
:100618008213FB60FA683B681340002B02D0012369
:10062800FB7501E00023FB75FB7D18461C37BD46B2
:100638005DF8047B704700BF0F6402400060024011
:100648000064024080B485B000AF786039607B6890
:10065800104A934202D8104BFB6001E00F4BFB603D
:100668003B6803F00053002B07D03B6823F0F023CE
:1006780023F08213FA68D36006E03B6823F0F02386
:1006880023F08213FA68936000BF1437BD465DF803
:10069800047B70470F64024000600240006402401F
:1006A80080B485B000AFF860B9601346FB71BB68D1
:1006B80003F08003002B0FD0FB79002B06D0FB68DA
:1006C8005B6943F08002FB685A6105E0FB685B697F
:1006D80023F08002FB685A61BB68802B14D0FB7939
:1006E800002B08D0FB681A68BB6803F01E031A4386
:1006F800FB681A6008E0FB681A68BB6803F01E0311
:10070800DB431A40FB681A6000BF1437BD465DF82A
:10071800047B704780B487B000AF786039600023ED
:100728007B6100233B610023FB6000237B6176E053
:1007380001227B6902FA03F33B613B681A683B6953
:100748001340FB60FA683B699A4265D17B681A6876
:100758007B695B00032101FA03F3DB431A407B68E2
:100768001A607B681A683B681B7919467B695B00CD
:1007780001FA03F31A437B681A603B681B79012B63
:1007880003D03B681B79022B2ED17B689A687B6962
:100798005B00032101FA03F3DB431A407B689A608C
:1007A8007B689A683B685B7919467B695B0001FA4C
:1007B80003F31A437B689A607B685A687B699BB22B
:1007C800194601238B40DB431A407B685A607B68DB
:1007D8005B683A68927911467A6992B201FA02F234
:1007E80092B21A437B685A607B68DA687B699BB26D
:1007F8005B00032101FA03F3DB431A407B68DA60EC
:100808007B68DA683B68DB7919467B695B0001FA2B
:1008180003F31A437B68DA607B6901337B617B6988
:100828000F2B85D900BF1C37BD465DF8047B704788
:1008380080B483B000AF78607B684FF6FF721A60AF
:100848007B6800221A717B6800225A717B6800223B
:100858009A717B680022DA7100BF0C37BD465DF8DB
:10086800047B704780B485B000AF78600B467B800E
:1008780013467B700023FB600023BB607A787B887B
:1008880003F007039B0002FA03F3FB607B88DB0895
:100898009BB218467B88DB089BB21A467B680832F5
:1008A80053F822207B8803F007039B000F2101FAED
:1008B80003F3DB4302EA03017B6800F1080243F813
:1008C80022107B88DB089BB21A467B68083253F8F3
:1008D8002220FB681343BB607B88DB089BB21A4667
:1008E8007B680832B96843F8221000BF1437BD4648
:1008F8005DF8047B7047000080B485B000AFF860F5
:10090800B9607A600749FB689A01BB681B071A43FC
:100918007B681343C1F8843000BF1437BD465DF8C7
:10092800047B70470038024080B483B000AF0346B0
:10093800FB71044AFB79136000BF0C37BD465DF8B4
:10094800047B70476800474280B483B000AF78608A
:10095800044A7B68136000BF0C37BD465DF8047B12
:10096800704700BF5C01474280B483B000AF786035
:100978000B46FB70FB78002B06D00A49094B1A6B13
:100988007B6813430B6306E00649064B1A6B7B68CA
:10099800DB4313400B6300BF0C37BD465DF8047B97
:1009A800704700BF0038024080B483B000AF786061
:1009B8000B46FB70FB78002B06D00A49094B1A6CD2
:1009C8007B6813430B6406E00649064B1A6C7B6888
:1009D800DB4313400B6400BF0C37BD465DF8047B56
:1009E800704700BF0038024080B487B000AF0346AC
:1009F800FB710023FB6000237B610023FB74FB7900
:100A08005B09DBB2FB60FB68012B03D1124B1B684F
:100A18007B6109E0FB68022B03D10F4B1B6F7B61E5
:100A280002E00D4B5B6F7B61FB7903F01F03FB60FA
:100A38007A69FB6822FA03F303F00103002B02D062
:100A48000123FB7401E00023FB74FB7C18461C3770
:100A5800BD465DF8047B70470038024080B48BB017
:100A680000AF786039600023FB820223FB840023F7
:100A7800BB8401237B840023FB610023BB6100232B
:100A88003B610023FB600023BB607B689B8B9BB2B0
:100A980023F47B6323F00F039AB27B689A837B6805
:100AA80002221A847B689B8BFB823B689B68022B23
:100AB80004D10023BB840223FB8487E03B689B8826
:100AC800002B02D110237B8401E020237B843B6828
:100AD8005B88202B02D87B8C5B007B84544B9B6803
:100AE80003F40003002B05D0514A514B9B6823F4B3
:100AF800000393604E4BD3F884309B09C3F308037B
:100B0800FB604B4BD3F884301B0F03F00703BB602B
:100B1800474B5B6803F03F033B61454B5B6803F45D
:100B28008003B3F5800F0BD1424A3B69B2FBF3F364
:100B3800FA6802FB03F2BB68B2FBF3F3BB610AE09D
:100B48003D4A3B69B2FBF3F3FA6802FB03F2BB6868
:100B5800B2FBF3F3BB613B68DB88B3F5007F0FD1D1
:100B6800BB691A0A13469B0013445B001A463B688C
:100B78009B68B2FBF3F39BB205339BB2FB6112E0B7
:100B88007B8C5B011A46BB69B3FBF2F213469B00F0
:100B980013445B001A463B689B68B2FBF3F39BB2B5
:100BA80005339BB2FB61FB69244AA2FB0323DB08E4
:100BB800FB61FB699BB203F00103BB84BB8CFA6940
:100BC800D31A5B08FB84BB8C1B02BB84FB8C012BF8
:100BD80002D9FB8CFF2B03D90223FB840023BB849F
:100BE8003B68DA88BB8C13439AB2FB8C13439AB2E6
:100BF8007B681A843B681A883B6859883B689888E0
:100C08003B689B8903439BB20B439BB213439AB245
:100C1800FB8A13439BB243F40063FB827B68FA8A26
:100C28009A8300BF2C37BD465DF8047B704700BF30
:100C38000038024040787D010024F400CDCCCCCCB3
:100C480080B483B000AF78607B6800221A807B682C
:100C580000225A807B6800229A807B680022DA8012
:100C68007B6802229A607B6800229A8100BF0C3759
:100C7800BD465DF8047B704780B483B000AF7860F0
:100C88000B46FB70FB78002B08D07B689B8B9BB2D4
:100C980043F480639AB27B689A8307E07B689B8BF6
:100CA8009BB223F480639AB27B689A8300BF0C37A7
:100CB800BD465DF8047B704780B483B000AF7860B0
:100CC8000B467B8013467B707B78002B08D07B68B3
:100CD8009B889AB27B8813439AB27B689A8009E012
:100CE8007B689B889AB27B88DB439BB213409AB29D
:100CF8007B689A8000BF0C37BD465DF8047B70475F
:100D080080B500AF0D490E48FFF760FC0346002B85
:100D180006D00A490A48FFF795FC0A4B01221A70C7
:100D280009490748FFF752FC0346002B03D0064940
:100D38000348FFF787FC00BF80BD00BF20000020EC
:100D480070600240941100201000002080B592B01D
:100D580000AF78603348FFF79DFA00213148FFF76C
:100D6800C5FB00BF2F48FFF718FC0346012BF9D03D
:100D7800BFF36F8F01214FF40010FFF7F5FD2A4BE9
:100D88003B612A4B7B6140F26543FB610023FB60BA
:100D98004023BB6100233B624FF480637B624FF4C6
:100DA8000063BB624FF40053FB624FF480733B63F4
:100DB8004FF400337B630423BB630123FB630023ED
:100DC8003B6400237B6400BF1648FFF7E6FB03463D
:100DD800012BF9D007F10C0319461248FFF72EFB37
:100DE800124B4FF4002219460E48FFF79BFB0122D5
:100DF80018210C48FFF754FC01210A48FFF7B1FB02
:100E08000F233B7200237B720023BB720123FB720A
:100E180007F108031846FFF7DBF900BF4837BD465E
:100E280080BD00BF706002400C3800400000002008
:100E380080B582B000AF78600020FFF775FD002014
:100E4800FFF782FD7B684BF68032934206D1192268
:100E580003214FF48170FFF74FFD0AE07B684AF6E3
:100E68004442934205D11922022140F20F10FFF7A4
:100E780043FD0120FFF758FD00BF3B20FFF7B4FDFD
:100E88000346002BF9D000BF0837BD4680BD0000DF
:100E980080B590B000AFF8600B467A607B81012185
:100EA8004FF48040FFF780FD01210320FFF75CFD30
:100EB800F868FFF7BDFF05220C215948FFF7D2FC5F
:100EC80007F124031846FFF7B3FC4FF480537B6205
:100ED800022387F82830002387F82A30002387F870
:100EE8002B30032387F8293007F1240319464C488F
:100EF800FFF710FC05220A214948FFF7B3FC4FF41D
:100F080080637B6207F1240319464548FFF702FC1A
:100F180005220F214248FFF7A5FC4FF400437B62EE
:100F280007F1240319463E48FFF7F4FB0522032185
:100F38003C48FFF797FC08237B6207F12403194616
:100F48003848FFF7E7FB07F114031846FFF778FE68
:100F580008233B844FF40073BB824FF400737B83F8
:100F68000023FB82FB68FB617B89102B02D10023E5
:100F78003B8310E07B89112B02D101233B830AE0DC
:100F88007B89182B02D103233B8304E07B89202B28
:100F980001D105233B8307F1140319462248FFF7C3
:100FA8005DFD224BFB630023BB6315E0FB6B1B68F5
:100FB8007B637B6B7B867B6B1B0C3B863A8E7B8EC5
:100FC8001B041343FB62FB6BFA6A1A60FB6B043366
:100FD800FB63BB6B0133BB63BB6B40F26442934260
:100FE800E4DD7868FFF7B2FE012202210E48FFF720
:100FF80063FE01210C48FFF73FFE01210C48FFF773
:1010080075FA0C490A48FFF71DFB00BF0848FFF7AF
:10101800C4FA0346012BF9D100BF4037BD4680BD55
:101028000004024000000240003800400000002098
:10103800706002403D00002080B584B000AF0023FE
:10104800FB6001210420FFF78FFC4FF400537B6005
:1010580001233B7202237B720223FB720023BB72C3
:101068003B1D19463448FFF755FB4FF40072182111
:101078004AF64440FFF70CFF01237B6003237B7291
:101088003B1D19462D48FFF745FB02237B603B1D9E
:1010980019462A48FFF73EFB04237B603B1D19468F
:1010A8002648FFF737FB08237B603B1D194623487A
:1010B800FFF730FB10237B603B1D19461F48FFF7E5
:1010C80029FB20237B603B1D19461C48FFF722FBA8
:1010D8001A4A1A4B5B6923F001035361174A174BED
:1010E8005B6923F002035361144A144B5B6943F0B4
:1010F80004035361114A114B5B6923F008035361E0
:101108000E4A0E4B5B6923F0100353610B4A0B4BDD
:101118005B6923F020035361FB680133FB60FB68C4
:10112800074A9342F8D1044A034B5B6983F400539E
:1011380053610023FB60EFE700080240000402400F
:1011480080C3C901DFF834D0002103E00C4B5B58A1
:10115800435004310B480C4B42189A42F6D30B4AC1
:1011680002E0002342F8043B094B9A42F9D300F00D
:1011780041F800F0EFF8FFF75FFF7047000002202A
:10118800C4130008000000209811002098110020C6
:10119800B4110020FEE780B400AF00BFBD465DF883
:1011A800047B704780B400AFFEE780B400AFFEE771
:1011B80080B400AFFEE780B400AFFEE780B400AFB4
:1011C80000BFBD465DF8047B704780B400AF00BF28
:1011D800BD465DF8047B704780B400AF00BFBD46D4
:1011E8005DF8047B704780B400AF00BFBD465DF872
:1011F800047B704780B500AF164A164BD3F8883089
:1012080043F47003C2F88830134A134B1B6843F049
:1012180001031360104B00229A600F4A0E4B1B68A3
:1012280023F0847323F4803313600B4B0B4A5A600A
:10123800094A094B1B6823F480231360064B0022DC
:10124800DA6000F00DF8034B4FF000629A6000BFBF
:1012580080BD00BF00ED00E00038024010300024DF
:1012680080B483B000AF00237B6000233B60354A25
:10127800344B1B6843F480331360324B1B6803F410
:1012880000333B607B6801337B603B68002B03D1F4
:101298007B68B3F5A04FF0D12A4B1B6803F40033E9
:1012A800002B02D001233B6001E000233B603B6838
:1012B800012B40D1234A234B1B6C43F0805313640A
:1012C800214A214B1B6843F4404313601D4A1D4BC0
:1012D8009B6893601B4A1B4B9B689360194A194B88
:1012E8009B6843F480539360164B184A5A60154A1A
:1012F800144B1B6843F08073136000BF114B1B68CD
:1013080003F00073002BF9D0114B40F202721A60FF
:101318000C4A0C4B9B6823F003039360094A094B62
:101328009B6843F00203936000BF064B9B6803F081
:101338000C03082BF9D100BF0C37BD465DF8047BC0
:10134800704700BF00380240007000401964410730
:10135800003C024070B50D4E0D4CA41BA410002596
:10136800A54209D10B4E0C4C00F018F8A41BA41090
:101378000025A54205D170BD56F82530984701359E
:10138800EEE756F8253098470135F2E7BC13000818
:10139800BC130008BC130008C0130008F8B500BF50
:1013A800F8BC08BC9E467047F8B500BFF8BC08BC3E
:0413B8009E46704796
:0413BC00BD01000867
:0413C0009901000887
:1013C40000464952000D264600570000004556418C
:1013D40000746D660000102000010000000002008F
:1013E4000000BB8000650000000600040000180037
:1013F400006E756A0000346B0000000000000000FD
:1014040000000000000000000000000000000000D8
:1014140000000000000000000000000000000000C8
:1014240000000000000000000000000000000000B8
:1014340000000000000000000000000000000000A8
:1014440000746164000CC661007700000077FFA897
:101454000073FFA80073017500150175001503637F
:10146400008E0363008E051D003F051D003F070528
:10147400007D0705007D08B7007208B700720A8D69
:1014840000A40A8D00A40C3500EF0C3500EF0DF11B
:10149400001A0DF1001A0F8A008A0F8A008A112798
:1014A40000481127004812A9006312A900631422FE
:1014B40000BF142200BF1588002A1588002A16DAF6
:1014C400003116DA0031181E00AC181E00AC1945A4
:1014D400004F1945004F1A61004D1A61004D1B5B06
:1014E40000DB1B5B00DB1C4900E71C4900E71D1502
:1014F40000731D1500731DD100491DD100491E6DD7
:1015040000251E6D00251EF400C71EF400C71F5DD4
:10151400005D1F5D005D1FAE00B91FAE00B91FE383
:1015240000471FE300471FFC00C61FFC00C61FFC4A
:1015340000DF1FFC00DF1FDD00751FDD00751FA924
:1015440000F41FA900F41F54008B1F54008B1EEAE3
:1015540000DC1EEA00DC1E6100E01E6100E01DC12B
:1015640000E91DC100E91D0600971D0600971C3403
:1015740000411C3400411B4900171B4900171A483D
:10158400002E1A48002E19300018193000181801BE
:1015940000741801007416C0005C16C0005C156A63
:1015A40000CC156A00CC1403008714030087128A48
:1015B40000E1128A00E111020054110200540F6B81
:1015C400008C0F6B008C0DC8003B0DC8003B0C1841
:1015D400003B0C18003B0A5F00440A5F0044089D6E
:1015E40000C0089D00C006D2007006D2007005033A
:1015F400001B0503001B032F001B032F001B0159B5
:1016040000B6015900B6FF800051FF800051FDAAC9
:1016140000A1FDAA00A1FBD400CCFBD400CCFA02AB
:1016240000E1FA0200E1F835000DF835000DF6701E
:101634000073F6700073F4B2009DF4B2009DF2FDE5
:10164400005DF2FD005DF15400EFF15400EFEFB6E0
:101654000054EFB60054EE280037EE280037ECA80B
:1016640000B2ECA800B2EB38006DEB38006DE9DB9A
:1016740000F0E9DB00F0E88F008BE88F008BE7587F
:10168400006CE758006CE63600B1E63600B1E52A96
:101694000087E52A0087E435001DE435001DE35783
:1016A400007EE357007EE29100EDE29100EDE1E47B
:1016B40000D3E1E400D3E15100DFE15100DFE0D8E1
:1016C4000043E0D80043E07A0087E07A0087E03600
:1016D40000A5E03600A5E00D0011E00D0011E000CA
:1016E400005BE000005BE00D0097E00D0097E03543
:1016F40000C3E03500C3E079008BE079008BE0D8CB
:1017040000E8E0D800E8E1500039E1500039E1E3B5
:1017140000FFE1E300FFE28F00A7E28F00A7E3559B
:101724000031E3550031E43300F3E43300F3E528FA
:10173400005FE528005FE6350035E6350035E757FC
:1017440000B2E75700B2E88D00D6E88D00D6E9D89C
:1017540000E1E9D800E1EB3600B6EB3600B6ECA5C3
:10176400007DECA5007DEE250075EE250075EFB437
:101774000022EFB40022F1510086F1510086F2FA02
:10178400004BF2FA004BF4AE004FF4AE004FF66C8F
:1017940000B6F66C00B6F8320033F8320033F9FFC5
:1017A4000006F9FF0006FBD10048FBD10048FDA666
:1017B400008CFDA6008CFF7D00C2FF7D00C2015499
:1017C400006001540060032B00C1032B00C104FF1F
:1017D400007904FF007906CF00EF06CF00EF0898E8
:1017E4000086089800860A5B00280A5B00280C160D
:1017F400005E0C16005E0DC500FF0DC500FF0F68EE
:1018040000AD0F6800AD10FF002110FF0021128809
:10181400007D1288007D140000C4140000C4156704
:1018240000241567002416BE00D016BE00D017FF92
:10183400006A17FF006A192D00EF192D00EF1A45F1
:1018440000D41A4500D41B4700E51B4700E51C32B1
:1018540000AE1C3200AE1D05002A1D05002A1DC065
:1018640000111DC000111E61007A1E61007A1EE87D
:1018740000611EE800611F5500E71F5500E71FA720
:1018840000651FA700651FDF00661FDF00661FFBE2
:10189400002E1FFB002E1FFD00721FFD00721FE3B0
:1018A40000801FE300801FAE00BB1FAE00BB1F5EA5
:1018B40000501F5E00501EF400901EF400901E6F36
:1018C400001B1E6F001B1DD1000B1DD1000B1D1929
:1018D400001F1D19001F1C48002D1C48002D1B60F3
:1018E40000B81B6000B81A6000081A600008194AA2
:1018F4000051194A0051181E0038181E003816DE0F
:10190400009216DE0092158A00CD158A00CD1424AB
:1019140000B9142400B912AD000D12AD000D112749
:10192400007A1127007A0F9100340F9100340DEFE3
:1019340000000DEF00000C4100AB0C4100AB0A8726
:1019440000F90A8700F908C500BD08C500BD06FCFA
:10195400009006FC0090052D0079052D0079035AAE
:1019640000E7035A00E70183006B0183006BFFABC0
:101974000078FFAB0078FDD400BFFDD400BFFBFEB0
:101984000075FBFE0075FA2C00C1FA2C00C1F85F4B
:1019940000D7F85F00D7F698002BF698002BF4DAFE
:1019A40000D6F4DA00D6F3240079F3240079F17A2E
:1019B400006DF17A006DEFDC0012EFDC0012EE4CEA
:1019C40000C4EE4C00C4ECCA00BCECCA00BCEB5929
:1019D400004CEB59004CE9FA006FE9FA006FE8ADEE
:1019E40000BCE8AD00BCE77400D4E77400D4E65052
:1019F40000DBE65000DBE5410085E5410085E44A73
:101A04000033E44A0033E36A0081E36A0081E2A21E
:101A14000011E2A20011E1F400AFE1F400AFE15DD6
:101A240000ABE15D00ABE0E200BEE0E200BEE081BD
:101A340000F8E08100F8E03B0044E03B0044E010A3
:101A440000A1E01000A1DFFF005BDFFF005BE00B03
:101A54000027E00B0027E0310084E0310084E072CD
:101A64000051E0720051E0CE00D0E0CE00D0E1445D
:101A7400004DE144004DE1D50066E1D50066E27F0A
:101A840000A4E27F00A4E3420011E3420011E41E3B
:101A940000CFE41E00CFE51100CDE51100CDE61B1B
:101AA4000069E61B0069E73B0005E73B0005E871B8
:101AB4000035E8710035E9BA00C8E9BA00C8EB1589
:101AC40000ABEB1500ABEC8300F5EC8300F5EE0105
:101AD4000092EE010092EF8F0021EF8F0021F12B95
:101AE4000049F12B0049F2D3009AF2D3009AF4860C
:101AF40000BBF48600BBF64300F4F64300F4F80898
:101B04000076F8080076F9D500DAF9D500DAFBA6F4
:101B14000066FBA60066FD7B00C1FD7B00C1FF5291
:101B24000066FF520066012A0035012A00350301D0
:101B340000650301006504D5007F04D5007F06A578
:101B440000F506A500F5086F004A086F004A0A333D
:101B540000820A3300820BED00190BED00190D9E73
:101B640000890D9E00890F4300290F43002910DBD3
:101B7400003210DB0032126500CA126500CA13DE9F
:101B840000E313DE00E31547005815470058169F7D
:101B940000C9169F00C917E200EB17E200EB191207
:101BA400004E1912004E1A2D005B1A2D005B1B31DA
:101BB40000791B3100791C1E008E1C1E008E1CF344
:101BC40000381CF300381DB000861DB000861E537B
:101BD40000391E5300391EDD00971EDD00971F4C8F
:101BE40000801F4C00801FA100751FA100751FDB22
:101BF40000721FDB00721FFA003C1FFA003C1FFE3C
:101C040000E01FFE00E01FE600761FE600761FB42A
:101C1400000E1FB4000E1F67001A1F67001A1EFF74
:101C240000B11EFF00B11E7C008F1E7C008F1DE0E2
:101C340000E21DE000E21D2A00A31D2A00A31C5C93
:101C4400001F1C5C001F1B7600771B7600771A7838
:101C5400002F1A78002F1964007519640075183A5A
:101C6400001F183A001F16FC002F16FC002F15AA9F
:101C7400008315AA0083144600AB144600AB12D0AF
:101C8400001E12D0001E114B00EF114B00EF0FB6D7
:101C940000D60FB600D60E1500870E1500870C6807
:101CA400001A0C68001A0AB000360AB0003608EFB1
:101CB400008F08EF008F072600E6072600E6055789
:101CC40000AF055700AF0384007E0384007E01AE9D
:101CD40000D301AE00D3FFD60075FFD60075FDFF1B
:101CE400002BFDFF002BFC2900C8FC2900C8FA5674
:101CF4000069FA560069F88900E3F88900E3F6C13F
:101D04000067F6C10067F502002DF502002DF34CC3
:101D140000BAF34C00BAF1A00088F1A00088F001E9
:101D240000DEF00100DEEE6F00A3EE6F00A3ECEC2A
:101D34000080ECEC0080EB7A0084EB7A0084EA19F2
:101D440000EDEA1900EDE8CA0012E8CA0012E790B3
:101D54000050E7900050E66A0016E66A0016E55A5D
:101D640000CFE55A00CFE45F00C1E45F00C1E37D2A
:101D7400008CE37D008CE2B3006DE2B3006DE202FF
:101D840000A7E20200A7E16A00E1E16A00E1E0ECF9
:101D94000084E0EC0084E08900CAE08900CAE040E5
:101DA4000020E0400020E0130070E0130070E00029
:101DB400000BE000000BE00900AEE00900AEE02CEF
:101DC4000065E02C0065E06B00FEE06B00FEE0C403
:101DD400008DE0C4008DE1390082E1390082E1C761
:101DE40000E7E1C700E7E26E00D4E26E00D4E32F1F
:101DF4000032E32F0032E409005FE409005FE4FAF3
:101E04000008E4FA0008E60200EAE60200EAE71F36
:101E14000094E71F0094E853002BE853002BE99B40
:101E2400006EE99B006EEAF500B3EAF500B3EC61DD
:101E34000090EC610090EDDE00CBEDDE00CBEF6AAC
:101E440000A1EF6A00A1F10400BCF10400BCF2ABF4
:101E5400009AF2AB009AF45E00DEF45E00DEF61A3D
:101E64000088F61A0088F7DF000EF7DF000EF9ABE2
:101E74000008F9AB0008FB7C00BBFB7C00BBFD50F9
:101E840000D9FD5000D9FF270086FF27008600FFF8
:101E9400008600FF008602D600F102D600F104AAF3
:101EA400008D04AA008D067B008B067B008B084600
:101EB4000086084600860A0A00970A0A00970BC69D
:101EC40000350BC600350D7700540D7700540F1DF7
:101ED40000F80F1D00F810B600BC10B600BC12418B
:101EE40000761241007613BD001613BD00161528A6
:101EF400000315280003168100A3168100A317C64A
:101F0400003517C6003518F8008118F800811A1436
:101F140000B11A1400B11B1A00DF1B1A00DF1C09E0
:101F240000351C0900351CE100171CE100171DA039
:101F340000BD1DA000BD1E4500C41E4500C41ED129
:101F4400009A1ED1009A1F4300B31F4300B31F9A87
:101F540000CE1F9A00CE1FD600EC1FD600EC1FF84F
:101F640000DD1FF800DD1FFE00A91FFE00A91FE908
:101F740000251FE900251FBA00301FBA00301F6F6B
:101F840000161F6F00161F0A00CF1F0A00CF1E89FC
:101F940000B41E8900B41DEF00841DEF00841D3CB5
:101FA40000551D3C00551C7000181C7000181B8C3B
:101FB40000711B8C00711A9000371A900037197E3B
:101FC4000066197E0066185600DA185600DA1719EA
:101FD40000C1171900C115C9009F15C9009F1467D6
:101FE40000451467004512F3001312F30013116F38
:101FF4000065116F00650FDC00E90FDC00E90E3BA2
:1020040000F30E3B00F30C8F00020C8F00020AD980
:1020140000050AD90005091800F5091800F5074F4D
:10202400003A074F003A0582004A0582004A03AF8E
:10203400005103AF005101D900C001D900C0000113
:10204400002F0001002FFE2A0026FE2A0026FC5441
:10205400009DFC54009DFA8100B0FA8100B0F8B3F1
:102064000034F8B30034F6EB00A9F6EB00A9F52A26
:10207400009DF52A009DF3730018F3730018F1C74F
:1020840000C0F1C700C0F02600C2F02600C2EE93E3
:1020940000ACEE9300ACED0F0012ED0F0012EB9CC0
:1020A40000E0EB9C00E0EA38007CEA38007CE8E8D9
:1020B40000FEE8E800FEE7AB0085E7AB0085E683B9
:1020C40000F2E68300F2E570006DE570006DE475E2
:1020D400005BE475005BE39100E2E39100E2E2C49B
:1020E4000084E2C40084E211005BE211005BE1774A
:1020F4000041E1770041E0F7006EE0F7006EE09107
:10210400004CE091004CE046002EE046002EE01624
:1021140000EEE01600EEE0000091E0000091E00720
:10212400008BE007008BE0280088E0280088E0644A
:1021340000AFE06400AFE0BB0054E0BB0054E12D0D
:10214400000DE12D000DE1B900B8E1B900B8E25E7F
:1021540000C4E25E00C4E31D006FE31D006FE3F4FE
:102164000070E3F40070E4E3007DE4E3007DE5E95E
:102174000091E5E90091E7050056E7050056E837C8
:10218400002FE837002FE97D005AE97D005AEAD58F
:102194000010EAD50010EC4000BDEC4000BDEDBBE2
:1021A400000AEDBB000AEF46006BEF46006BF0DF60
:1021B400003AF0DF003AF28500BAF28500BAF4364C
:1021C4000020F4360020F5F2008EF5F2008EF7B50B
:1021D40000FCF7B500FCF980008EF980008EFB51FD
:1021E4000052FB510052FD260092FD260092FEFD96
:1021F40000E9FEFD00E900D400B000D400B002AB59
:10220400009002AB009004800076048000760651B2
:10221400001F0651001F081D00C4081D00C409E169
:10222400009F09E1009F0B9D000E0B9D000E0D50B9
:1022340000A70D5000A70EF700490EF700491092B1
:10224400002110920021121E004C121E004C139B00
:102254000006139B00061508002E1508002E1662B2
:10226400003E1662003E17A9000A17A9000A18DDED
:10227400001C18DD001C19FC00B619FC00B61B0379
:10228400001A1B03001A1BF500341BF500341CCE86
:10229400001A1CCE001A1D8F00DD1D8F00DD1E37B5
:1022A40000871E3700871EC500901EC500901F3A88
:1022B400004F1F3A004F1F9400F11F9400F11FD2EA
:1022C40000931FD200931FF6004B1FF6004B1FFF15
:1022D40000A11FFF00A11FED00071FED00071FBF96
:1022E40000BF1FBF00BF1F77007D1F77007D1F1435
:1022F40000451F1400451E96006A1E96006A1DFFC5
:1023040000C51DFF00C51D4D005D1D4D005D1C84F5
:1023140000011C8400011BA200441BA200441AA853
:1023240000FA1AA800FA1997005C1997005C187251
:1023340000E6187200E61737000B1737000B15E993
:10234400001915E90019148800AE148800AE13159D
:1023540000121315001211930076119300761001E8
:102364000085100100850E6200840E6200840CB6A4
:10237400000B0CB6000B0B0100CD0B0100CD094185
:1023840000FD094100FD0779004E0779004E05ACB8
:10239400006005AC006003D9004003D9004002048A
:1023A400009802040098002C0006002C0006FE553C
:1023B40000D1FE5500D1FC7E0084FC7E0084FAAB83
:1023C40000E7FAAB00E7F8DC001BF8DC001BF714AD
:1023D4000036F7140036F55300F1F55300F1F39A83
:1023E40000EBF39A00EBF1ED0068F1ED0068F04CBE
:1023F40000C0F04C00C0EEB7004FEEB7004FED3216
:1024040000B0ED3200B0EBBC0054EBBC0054EA5811
:102414000054EA580054E90600D7E90600D7E7C794
:1024240000EDE7C700EDE69D0089E69D0089E5899A
:1024340000A5E58900A5E48B0006E48B0006E3A56E
:102444000086E3A50086E2D600B9E2D600B9E22010
:10245400005AE220005AE18400CAE18400CAE10182
:10246400009AE101009AE0990006E0990006E04C28
:102474000065E04C0065E01900DBE01900DBE001D9
:102484000060E0010060E00500A3E00500A3E02493
:102494000034E0240034E05E008EE05E008EE0B2A2
:1024A40000F4E0B200F4E1210048E1210048E1AB8E
:1024B400008CE1AB008CE24E00E5E24E00E5E30A5D
:1024C40000EAE30A00EAE3DF00C0E3DF00C0E4CC93
:1024D40000B7E4CC00B7E5D000E6E5D000E6E6EAD4
:1024E400005FE6EA005FE81A0029E81A0029E95EBD
:1024F400001CE95E001CEAB50036EAB50036EC1EA5
:102504000019EC1E0019ED9800BBED9800BBEF21FB
:102514000085EF210085F0B90093F0B90093F25ED5
:10252400005FF25E005FF40F0050F40F0050F5C935
:10253400002CF5C9002CF78C000DF78C000DF95711
:10254400009EF957009EFB270082FB270082FCFBBC
:082554000000FCFB0100000087
:040000050800114D91
:00000001FF
